:100000000C9463000C948B000C948B000C948B006C
:100010000C948B000C948B000C948B000C948B0034
:100020000C948B000C948B000C948B000C948B0024
:100030000C948B000C948B000C948B000C948B0014
:100040000C94F2010C948B000C9462020C943C0210
:100050000C948B000C948B000C948B000C948B00F4
:100060000C948B000C948B006364696E6F707375D5
:1000700078585B0000000000240027002A000000E0
:100080000000250028002B000404040404040404D8
:100090000202020202020303030303030102040833
:1000A00010204080010204081020010204081020E2
:1000B0000000000800020100000304070000000027
:1000C00000000000940211241FBECFEFD8E0DEBF75
:1000D000CDBF11E0A0E0B1E0EEE8F7E102C005908D
:1000E0000D92A83BB107D9F722E0A8EBB1E001C01F
:1000F0001D92AE36B207E1F710E0C3E6D0E004C0CF
:100100002197FE010E94DA05C236D107C9F70E9485
:10011000C9020C94C50B0C940000EDEBF0E02491A7
:10012000E9EAF0E09491E5E9F0E0E491EE23C9F02A
:10013000222339F0233001F1A8F4213019F12230C3
:1001400029F1F0E0EE0FFF1FE258FF4FA591B491A7
:100150002FB7F894EC91811126C090959E239C9323
:100160002FBF08952730A9F02830C9F0243049F76F
:10017000209180002F7D03C0209180002F77209355
:100180008000DFCF24B52F7724BDDBCF24B52F7DB2
:10019000FBCF2091B0002F772093B000D2CF2091D9
:1001A000B0002F7DF9CF9E2BDACFAF92BF92CF92C6
:1001B000DF92EF92FF920F931F93CF93DF936C0127
:1001C0007B018B01040F151FEB015E01AE18BF0808
:1001D000C017D10759F06991D601ED91FC910190BA
:1001E000F081E02DC6010995892B79F7C501DF91D2
:1001F000CF911F910F91FF90EF90DF90CF90BF9024
:10020000AF900895FC01538D448D252F30E0842F4D
:1002100090E0821B930B541710F0CF96089501972E
:100220000895FC01918D828D981761F0A28DAE0F1B
:10023000BF2FB11D5D968C91928D9F5F9F73928FA2
:1002400090E008958FEF9FEF0895FC01918D828DCE
:10025000981731F0828DE80FF11D858D90E008959B
:100260008FEF9FEF0895FC01918D228D892F90E0F3
:10027000805C9F4F821B91098F739927089585ECAD
:1002800091E00E94330121E0892B09F420E0822FC4
:10029000089580E090E0892B29F00E943F018111B0
:1002A0000C940000089585EC91E00E943301892BA5
:1002B000D1F385EC91E00E9411010895FC01A48D19
:1002C000A80FB92FB11DA35ABF4F2C91848D90E078
:1002D00001968F739927848FA689B7892C93A0895B
:1002E000B1898C91837080648C93938D848D9813E5
:1002F00006C00288F389E02D80818F7D8083089578
:10030000EF92FF920F931F93CF93DF93EC0181E065
:10031000888F9B8D8C8D98131AC0E889F98980810C
:1003200085FF15C09FB7F894EE89FF896083E8893F
:10033000F98980818370806480839FBF81E090E031
:10034000DF91CF911F910F91FF90EF900895F62EBE
:100350000B8D10E00F5F1F4F0F731127E02E8C8D58
:100360008E110CC00FB607FCFACFE889F98980819D
:1003700085FFF5CFCE010E945E01F1CFEB8DEC0F32
:10038000FD2FF11DE35AFF4FF0829FB7F8940B8FBA
:10039000EA89FB8980818062CFCFCF93DF93EC0124
:1003A000888D8823B9F0AA89BB89E889F9898C915D
:1003B00085FD03C0808186FD0DC00FB607FCF7CF19
:1003C0008C9185FFF2CF808185FFEDCFCE010E9419
:1003D0005E01E9CFDF91CF910895682F85EC91E020
:1003E0000C9480011F920F920FB60F9211242F933D
:1003F0003F938F939F93AF93BF938091C10190914F
:10040000C201A091C301B091C4013091C00123E0A9
:10041000230F2D3758F50196A11DB11D2093C00162
:100420008093C1019093C201A093C301B093C40112
:100430008091BC019091BD01A091BE01B091BF011E
:100440000196A11DB11D8093BC019093BD01A093A5
:10045000BE01B093BF01BF91AF919F918F913F912A
:100460002F910F900FBE0F901F90189526E8230F25
:100470000296A11DB11DD2CF1F920F920FB60F92FF
:1004800011242F933F934F935F936F937F938F9399
:100490009F93AF93BF93EF93FF9385EC91E00E94FE
:1004A0005E01FF91EF91BF91AF919F918F917F91ED
:1004B0006F915F914F913F912F910F900FBE0F90D1
:1004C0001F9018951F920F920FB60F9211242F9321
:1004D0008F939F93EF93FF93E091D501F091D60115
:1004E0008081E091DB01F091DC0182FD1BC09081F5
:1004F0008091DE018F5F8F732091DF01821741F0C1
:10050000E091DE01F0E0EB53FE4F958F8093DE012A
:10051000FF91EF919F918F912F910F900FBE0F90B0
:100520001F9018958081F4CFE5ECF1E013821282E0
:1005300088EE93E0A0E0B0E084839583A683B78340
:100540008AE091E09183808385EC90E095878487B1
:1005500084EC90E09787868780EC90E0918B808B8D
:1005600081EC90E0938B828B82EC90E0958B848B76
:1005700086EC90E0978B868B118E128E138E148EE4
:1005800080E091E00E94AE04909363028093620247
:100590000895CF93DF931F92CDB7DEB7789484B5DB
:1005A000826084BD84B5816084BD85B5826085BD6F
:1005B00085B5816085BD80916E00816080936E00FD
:1005C00010928100809181008260809381008091EF
:1005D00081008160809381008091800081608093A0
:1005E00080008091B10084608093B1008091B00060
:1005F00081608093B00080917A00846080937A005B
:1006000080917A00826080937A0080917A00816084
:1006100080937A0080917A00806880937A001092AB
:10062000C10063E571E08DEE91E00E944704909374
:100630006702809366029093650280936402E09162
:10064000D501F091D60182E08083E091D101F09153
:10065000D2011082E091D301F091D4018FEC80831C
:100660001092DD01E091D901F091DA0186E08083FA
:10067000E091D701F091D801808180618083E09181
:10068000D701F091D801808188608083E091D70103
:10069000F091D801808180688083E091D701F0914A
:1006A000D80180818F7D8083E9EAF0E02491E5E93B
:1006B000F0E08491882399F090E0880F991FFC0165
:1006C000EC58FF4FA591B491FC01E258FF4F859182
:1006D00094918FB7F894EC91E22BEC938FBFCE01FD
:1006E00001967C010CE111E096E6992E2EE6822E11
:1006F0003FE6732E48E1C42E41E0D42E8CE6682EEE
:10070000DF92CF920E94E9051092B9011092B801D0
:10071000E0916202F0916302CF0193950F900F90E8
:10072000E817F90711F01192FBCF85EC91E00E94D8
:100730003301892BD1F31092B9011092B801FF92C5
:10074000EF921F930F930E94FF050F900F900F9051
:100750000F9029812D3039F18091B8019091B90124
:100760008F3F910509F0FCF4283081F4009739F3AC
:1007700001979093B9018093B80120916202309162
:100780006302820F931FFC011082D9CFE0916202B5
:10079000F0916302E80FF91F208301969093B9014D
:1007A0008093B801CCCFA0906202B0906302F501B3
:1007B0009501339594E645E68081882359F0863487
:1007C000D9F154F5843491F1853471F131962E17B5
:1007D0003F0791F76FE171E0C5010E94E005892BA9
:1007E000C9F58091BA019091BB01019739F586E274
:1007F00091E09F938F930E94E9050F900F9080E006
:1008000090E0892B09F47CCF0E943F01882309F4F2
:1008100077CF0E94000072CF8E3461F08F3441F0A8
:100820008C34A1F66082D2CF4083D0CF9083CECFDC
:100830007082CCCF8082CACF9082C8CF81E00E94E4
:100840008D0081E090E09093BB018093BA0183E436
:1008500091E0CFCF6CE571E0C5010E94E005892BE6
:1008600099F48091BA019091BB01892B19F484E627
:1008700091E0BFCF80E00E948D001092BB011092EA
:10088000BA0182E891E0B5CF8CE991E0B2CF0F9345
:100890001F93CF93DF93009759F46115710541F4CD
:1008A000F0E0E0E0CF01DF91CF911F910F9108952B
:1008B0008B01EC016EE070E081E090E00E94920418
:1008C000FC01892B69F380E883830115110571F020
:1008D0001387028781E88383809164029091650287
:1008E000892B21F4F0936502E09364022097D1F202
:1008F000D187C087838182608383809166029091D3
:100900006702892B79F6F0936702E0936602809183
:10091000680290916902892B29F6F0936902E093AD
:100920006802C0CF0F931F93CF93DF93869F800100
:10093000879F100D969F100D1124C8010E94AE04D0
:10094000EC01009729F0A80170E060E00E94D30557
:10095000CE01DF91CF911F910F9108950F931F93B7
:10096000CF93DF938230910510F482E090E0E09124
:100970006C02F0916D0230E020E0B0E0A0E0309732
:1009800099F42115310509F44AC0281B390B24308C
:100990003105D8F58A819B816115710589F1FB01CB
:1009A00093838283FE0111C04081518102811381B2
:1009B00048175907E0F04817590799F4109761F064
:1009C00012960C93129713961C933296CF01DF91D7
:1009D000CF911F910F91089500936C0210936D02B7
:1009E000F4CF2115310551F04217530738F0A90112
:1009F000DB019A01BD01DF01F801C1CFEF01F9CFA1
:100A000090936D0280936C02CDCFFE01E20FF31F35
:100A1000819391932250310939832883D7CF209134
:100A20006A0230916B02232B41F420910201309134
:100A3000030130936B0220936A02209100013091F0
:100A400001012115310541F42DB73EB74091040154
:100A500050910501241B350BE0916A02F0916B0265
:100A6000E217F307A0F42E1B3F0B2817390778F085
:100A7000AC014E5F5F4F2417350748F04E0F5F1FE4
:100A800050936B0240936A02819391939FCFF0E061
:100A9000E0E09CCFCF93DF930097E9F0FC01329721
:100AA00013821282A0916C02B0916D02ED0130E0D0
:100AB00020E01097A1F420813181820F931F2091B3
:100AC0006A0230916B022817390709F061C0F09370
:100AD0006B02E0936A02DF91CF910895EA01CE178D
:100AE000DF07E8F54A815B819E0141155105B1F7A9
:100AF000E901FB83EA8349915991C40FD51FEC1793
:100B0000FD0761F4808191810296840F951FE901B0
:100B100099838883828193819B838A83F0E0E0E0DC
:100B200012968D919C9113970097B9F52D913C9158
:100B30001197CD010296820F931F20916A02309186
:100B40006B022817390739F6309751F510926D026C
:100B500010926C02B0936B02A0936A02BCCFD38355
:100B6000C28340815181840F951FC817D90761F452
:100B70004E5F5F4F88819981480F591F5183408391
:100B80008A819B81938382832115310509F0B0CF3F
:100B9000F0936D02E0936C029ECFFD01DC01C0CFAB
:100BA00013821282D7CFDC0101C06D9341505040B7
:100BB000E0F70895EE0FFF1F0590F491E02D0994E2
:100BC000FB01DC018D91019080190110D9F3990B83
:100BD0000895B0E0A0E0EFEEF5E00C949E0BAE01BE
:100BE0004B5F5F4FFA0161917191AF018091660295
:100BF000909167020E941506E2E00C94BA0BB0E0F7
:100C0000A0E0E5E0F6E00C949E0BAE014B5F5F4F79
:100C1000FA0161917191AF01809164029091650236
:100C20000E947A09E2E00C94BA0BABE0B0E0EBE191
:100C3000F6E00C948E0B7C013B018A01FC011782CB
:100C40001682838181FFC8C1CE0101965C01F70144
:100C50009381F30193FD859193FF81913F01882357
:100C600009F453C1853239F493FD859193FF819145
:100C70003F01853229F4B70190E00E94E50AE7CFF1
:100C8000912C212C312CFFE1F31538F08B3211F12E
:100C900090F4803209F1833229F137FC3CC020ED19
:100CA000280F2A3050F536FE20C08AE0989E200D8D
:100CB0001124922E06C08D3291F0803371F7689422
:100CC00030F8F30193FD859193FF81913F018111EC
:100CD000DACF21C0689431F8689432F8F2CF689482
:100CE00033F8EFCF689434F8ECCFEAE02E9E200D75
:100CF0001124222E689435F8E4CF8E3229F436FC84
:100D000004C1689436F8DDCF8C3619F4689437F84E
:100D1000D8CF8836B1F2982F9F7D95549330E0F06C
:100D20008336A1F18337C1F1833509F063C028010F
:100D3000F2E04F0E511CF801C080D180692D70E0A7
:100D400036FC02C06FEF7FEFC6010E94930A4C0190
:100D5000689437F882010AC00C5F1F4FFFE3F983E4
:100D600088248394912C6501E89437F833FE2DC0D4
:100D7000522C8114910471F5552009F468CFB70104
:100D800080E290E00E94E50A5A94F6CFF801808153
:100D900089830E5F1F4FE4CF2801F2E04F0E511CF4
:100DA000F801C080D180692D70E036FC02C06FEF81
:100DB0007FEFC6010E949E0A4C018201D5CFB70188
:100DC00080E290E00E94E50A2A942814190409F0B0
:100DD000B0F7CECFF60137FC859137FE81916F01D8
:100DE000B70190E00E94E50A51105A94F1E08F1A81
:100DF0009108BFCF843619F0893609F077C0F80121
:100E000037FE6BC060817181828193810C5F1F4FBF
:100E1000F32DFF763F2E97FF09C090958095709532
:100E200061957F4F8F4F9F4F689437F82AE030E0ED
:100E3000A5010E942D0BC82ECA188C2C432C36FEFF
:100E40000CC0E89440F8C91440F434FE05C032FCEC
:100E500003C0F32DFE7E4F2E892C44FE95C0FE016B
:100E6000EC0DF11D8081803309F087C0242D297E8F
:100E7000422E842D8870582E43FC95C040FE8FC0B2
:100E80009C2C821418F42C0C922C981844FE91C0BF
:100E9000B70180E390E00E94E50A42FE09C088E7BE
:100EA00090E041FE02C088E590E0B7010E94E50AAB
:100EB000C91408F48AC0CA94D12C9FEFC91AD90A60
:100EC000CA0CDB1CF60182916F01B70190E00E9411
:100ED000E50AAC14BD04B1F74FCF60817181072ED4
:100EE000000C880B990B0E5F1F4F92CFD32CE89408
:100EF000D4F82AE030E0853739F1232D297FD22E2E
:100F00008F3601F148F48835A9F0F7018681978181
:100F10002B96E2E10C94AA0B803749F08837A9F7A9
:100F2000D4FE02C06894D2F820E130E00DC068948D
:100F3000D4F8F6CF34FE03C0822F8660D82E20E18D
:100F400032E002C028E030E0F801D7FE0FC0608137
:100F50007181828193810C5F1F4FA5010E942D0B2F
:100F6000C82ECA183D2CE89437F867CF608171818C
:100F700090E080E00E5F1F4FF0CF42FC02C08394F0
:100F800078CF8394839475CF842D867809F471CFBC
:100F9000F6CFB70180E290E00E94E50A83948214C4
:100FA000C0F3512C73CF522C5818821408F46ECF12
:100FB000F8CF842D867809F47BCF8BE241FE80E266
:100FC00047FC8DE2B70190E071CFB70180E390E07C
:100FD0000E94E50A9A946CCF8FEF9FEF99CF20FD86
:100FE00009C0FC0123FD05C022FF02C07383628398
:100FF00051834083089544FD17C046FD1DC0DB01A9
:10100000FC01AA0FBB1FEE1FFF1F1094D1F76A0F40
:101010007B1F8E1F9F1F660F771F881F991F620FF0
:10102000711D811D911D089533E0660F771F881F84
:10103000991F3150D1F7F3CF34E0F7CF0F931F93BF
:10104000CF93DF938C01C8010E94A90AEC0197FDA0
:1010500008C00E947F0A892BB1F7B801CE010E9417
:10106000150BCE01DF91CF911F910F9108958F92B3
:101070009F92AF92BF92EF92FF920F931F93CF93E5
:10108000DF938C01D62F7A01B22E0E94A90A9C010F
:1010900033272B32310529F02D323105A9F468941C
:1010A000B7F8D15061F480E0DF91CF911F910F919B
:1010B000FF90EF90BF90AF909F908F900895C801E0
:1010C0000E94A90A97FDEFCFCB2DCD7F2B2D20734A
:1010D000F9F48033E9F4AA24AA94AD0E89F0C8018A
:1010E0000E94A90A97FD0CC0282F2F7D283561F496
:1010F000C264D25029F0C8010E94A90A97FF08C013
:10110000812C912C54011BC0B6FE2BC0C260DA2D7D
:10111000812C912C540120ED280F283028F1C4FD9A
:1011200009C02A3008F1C6FF05C02F7D3FEE320FFF
:101130003630C8F0B8010E94150BC1FFB4CFC7FF0D
:1011400008C0B094A09490948094811C911CA11C20
:10115000B11C2C2FB501A401C7010E94EF0781E04B
:10116000A3CFC261D4CF27504C2FC501B4010E9438
:10117000FB074B015C01C260D15009F3C8010E941A
:10118000A90A97FFC8CFD9CFA0E2B0E0EAECF8E017
:101190000C94930B5C01962E7A01CE0101966C01A2
:1011A00080E2F60111928A95E9F7F501B381890190
:1011B00030E020E0712C812CA0E041E050E0F8010B
:1011C000B3FD8591B3FF8191982F8F01811107C0E5
:1011D00010E000E0C801A096EDE00C94AF0B8E3556
:1011E00019F42115310541F1A21713064CF48D3580
:1011F00049F18D3229F4811006C0882483941DC0E2
:10120000882009F464C0E92FE695E695E695EC0D93
:10121000FD2DF11D892F8770BA0101C0660F8A95D7
:10122000EAF78081682B6083791651F0971510F4E6
:101230009F5FE9CF9150E7CFA1E02F5F3F4FBFCF36
:10124000812CFBCF882019F08E8180628E83AA23A7
:1012500059F0F6019E012F5D3F4F8081809580837C
:101260003196E217F307C9F788248394C5010E94D9
:10127000A90A97FD16C0E82FE695E695E695EC0DD0
:10128000FD2DF11D208130E0AC014770552702C0D3
:10129000359527954A95E2F720FD06C0B5010E94D5
:1012A000150B882069F094CFE114F10429F0F701BF
:1012B0008083C70101967C019A94812C9110D6CF2E
:1012C000E114F10409F486CFF701108283CFE82FEF
:1012D000E695E695E695EC0DFD2DF11D982F97709E
:1012E000BA0101C0660F9A95EAF79081692B608375
:1012F000782EA3CFB0E0A0E0E0E8F9E00C94910BE9
:101300006C01EB015A01FC0117821682512CF60187
:10131000E380FE01E3FC8591E3FE8191182FEF014C
:101320008823E9F090E00E947F0A892B21F0C60112
:101330000E941E08ECCF153241F4FE01E3FC15912A
:10134000E3FE1191EF01153269F4C6010E94A90A6A
:1013500097FD8EC01817D9F2B6010E94150B852D86
:1013600090E08AC000E01A3231F4E3FC1591E3FE0C
:101370001191EF0101E0F12C20ED210F2A3048F10D
:1013800001FF37C0FF2059F31836B1F11C3609F4BC
:101390003DC0112321F3612F70E088E690E00E94A8
:1013A000880A892BE1F2912C812C00FD06C0F50101
:1013B00080809180C50102965C011E3679F5F601A8
:1013C0004681578170E060E0202FC4010E94EF0742
:1013D0009ECF02606F2D70E090E080E040E20E94BE
:1013E000FB07F62EFE01E3FC1591E3FE1191EF01E0
:1013F000C3CFFF24FA94C8CFFE01E3FC1591E3FEAE
:101400001191EF01183609F0C4CF08600460FE01A5
:10141000E3FC1591E3FE1191EF01BBCF1336C1F44C
:1014200001FD02C0FF24F394C6010E94A90A97FDA2
:101430001FC08114910429F0F4018083C401019636
:101440004C01FA94F110F0CF00FD61CF53945FCFBF
:101450001B35B9F49E01A4016F2DC6010E94C4087A
:10146000EC01892B89F7F6018381807309F477CF2A
:101470008FEF9FEF511073CFCDB7DEB7EFE00C9435
:10148000AD0BC6010E941E0897FDF2CF1F36A9F1D1
:1014900030F4143641F0193639F0006405C01337C2
:1014A000B9F01537D1F70062202FA4016F2DC601C6
:1014B0000E9437088111C8CFD6CF8114910429F03A
:1014C000F4016082C40101964C01FA94FF2071F08E
:1014D000C6010E94A90A3C0197FD08C00E947F0A2C
:1014E000892B59F3B601C3010E94150B8114910495
:1014F00009F4AACFF4011082A7CF0061D5CF9111D2
:101500000C948B0B803219F089508550C8F70895E0
:10151000FC010590061621F00020D9F7C0010895BE
:101520003197CF010895FC01059061507040011082
:10153000D8F7809590958E0F9F1F0895FC016150FC
:10154000704001900110D8F7809590958E0F9F1FE5
:101550000895CF93DF93EC012B8120FF1AC026FF63
:101560000CC02F7B2B838E819F8101969F838E835E
:101570008A8190E0DF91CF91089522FF18C0E88121
:10158000F9818081082E000C990B009729F42062C4
:101590002B838FEF9FEFEECF3196F983E8832E8177
:1015A0003F812F5F3F4F3F832E839927E3CFEA850B
:1015B000FB85099597FFF3CF2B81019621F080E2FF
:1015C000822B8B83E6CF80E1FBCF0F931F93CF93CA
:1015D000DF93182F092FEB018B8181FD09C01FEFCD
:1015E0000FEF812F902FDF91CF911F910F910895D1
:1015F00082FF14C02E813F818C819D81281739077D
:101600003CF4E881F981CF010196998388831083A6
:101610008E819F8101969F838E83E3CFE885F98534
:10162000812F0995892BA1F3DACFFB01238120FFBC
:1016300011C026FD0FC08F3F980771F082832F7D68
:101640002064238326813781215031093783268303
:10165000992708958FEF9FEF0895FA01AA27283060
:1016600051F1203181F1E8946F936E7F6E5F7F4F6F
:101670008F4F9F4FAF4FB1E03ED0B4E03CD0670FEB
:10168000781F891F9A1FA11D680F791F8A1F911D3E
:10169000A11D6A0F711D811D911DA11D20D009F48E
:1016A00068943F912AE0269F11243019305D3193D0
:1016B000DEF6CF010895462F4770405D4193B3E0B9
:1016C0000FD0C9F7F6CF462F4F70405D4A3318F060
:1016D000495D31FD4052419302D0A9F7EACFB4E011
:1016E000A6959795879577956795BA95C9F70097C9
:1016F0006105710508959B01AC010A2E069457956A
:10170000479537952795BA95C9F7620F731F841FC0
:10171000951FA01D08959927882708952F923F921D
:101720004F925F926F927F928F929F92AF92BF92F1
:10173000CF92DF92EF92FF920F931F93CF93DF939D
:10174000CDB7DEB7CA1BDB0B0FB6F894DEBF0FBEFA
:10175000CDBF09942A88398848885F846E847D8447
:101760008C849B84AA84B984C884DF80EE80FD8049
:101770000C811B81AA81B981CE0FD11D0FB6F894BF
:0E178000DEBF0FBECDBFED010895F894FFCF80
:10178E0000006E028000000000008001D500020102
:10179E00CD01330111012501403A20002563006C73
:1017AE006564206F6E003C53797374656D3E3A200C
:1017BE004C454420697320616C7265616479206FB9
:1017CE006E0D003C53797374656D3E3A20547572FC
:1017DE006E6564204C4544206F6E0D006C65642070
:1017EE006F6666003C53797374656D3E3A204C45C6
:1017FE004420697320616C7265616479206F66663E
:10180E000D003C53797374656D3E3A205475726EBB
:10181E006564204C4544206F66660D003C53797319
:10182E0074656D3E3A20556E6B6E6F776E20636FEA
:08183E006D6D616E64210D0067
:00000001FF
