:100000000C9468000C9424030C94FD020C94900052
:100010000C9490000C9490000C9490000C94900020
:100020000C9490000C9490000C9490000C944B0352
:100030000C9490000C9490000C9490000C94900000
:100040000C945B020C9490000C94CB020C94A502CF
:100050000C9490000C9490000C9490000C949000E0
:100060000C9490000C9490006364696E6F707375CB
:1000700078585B00000000002300260029000000E3
:100080000008000201000003040700000000000057
:10009000000000000000250028002B0000000000E8
:1000A000240027002A0004040404040404040202B7
:1000B00002020202030303030303010204081020E7
:1000C0004080010204081020010204081020CC0323
:1000D00011241FBECFEFD8E0DEBFCDBF11E0A0E0FE
:1000E000B1E0E8EFF3E102C005900D92A032B10754
:1000F000D9F721E0A0E2B1E001C01D92A83DB2070E
:10010000E1F710E0C8E6D0E004C02197FE010E94AC
:100110007506C736D107C9F70E94FD030C94FA098A
:100120000C940000AF92BF92CF92DF92EF92FF92B9
:100130000F931F93CF93DF936C017B018B01040F0F
:10014000151FEB015E01AE18BF08C017D10759F0AB
:100150006991D601ED91FC910190F081E02DC601ED
:100160000995892B79F7C501DF91CF911F910F91E7
:10017000FF90EF90DF90CF90BF90AF900895FC017B
:10018000538D448D252F30E0842F90E0821B930BFC
:10019000541710F0CF96089501970895FC01918DA2
:1001A000828D981761F0A28DAE0FBF2FB11D5D96A5
:1001B0008C91928D9F5F9F73928F90E008958FEF47
:1001C0009FEF0895FC01918D828D981731F0828DFB
:1001D000E80FF11D858D90E008958FEF9FEF089552
:1001E000FC01918D228D892F90E0805C9F4F821BB6
:1001F00091098F73992708958FE291E00E94F00092
:1002000021E0892B09F420E0822F089580E090E01E
:10021000892B29F00E94FC0081110C9400000895A4
:10022000FC01A48DA80FB92FB11DA35ABF4F2C916B
:10023000848D90E001968F739927848FA689B78962
:100240002C93A089B1898C91837080648C93938D59
:10025000848D981306C00288F389E02D80818F7DFC
:1002600080830895EF92FF920F931F93CF93DF93B4
:10027000EC0181E0888F9B8D8C8D98131AC0E889E2
:10028000F989808185FF15C09FB7F894EE89FF89B1
:100290006083E889F98980818370806480839FBF4F
:1002A00081E090E0DF91CF911F910F91FF90EF904F
:1002B0000895F62E0B8D10E00F5F1F4F0F7311275F
:1002C000E02E8C8D8E110CC00FB607FCFACFE8899A
:1002D000F989808185FFF5CFCE010E941001F1CF11
:1002E000EB8DEC0FFD2FF11DE35AFF4FF0829FB70E
:1002F000F8940B8FEA89FB8980818062CFCFCF93FE
:10030000DF93EC01888D8823B9F0AA89BB89E8893D
:10031000F9898C9185FD03C0808186FD0DC00FB6E3
:1003200007FCF7CF8C9185FFF2CF808185FFEDCF61
:10033000CE010E941001E9CFDF91CF910895833063
:1003400081F028F4813099F08230A9F00895873047
:10035000A9F08830C9F08430B1F4809180008F7D9D
:1003600003C0809180008F7780938000089584B5CA
:100370008F7784BD089584B58F7DFBCF8091B000C9
:100380008F778093B00008958091B0008F7DF9CF72
:100390001F93CF93DF93282F30E0F901E258FF4FEE
:1003A0008491F901E654FF4FD491F901EA55FF4FCA
:1003B000C491CC23A9F0162F81110E949F01EC2F2C
:1003C000F0E0EE0FFF1FEE56FF4FA591B4918FB7EF
:1003D000F894EC91111108C0D095DE23DC938FBF07
:1003E000DF91CF911F910895DE2BF8CF0895809172
:1003F000CC019091CD01892B29F480916F008D7FE4
:1004000080936F008091CC019091CD01892BF1F404
:10041000109280001092810080918100886080930A
:1004200081008091810084608093810084E39CE05E
:100430009093890080938800109285001092840028
:10044000B19A80916F00826080936F00089561E09F
:10045000813319F0803329F460E0809124010C94F9
:10046000C8010895CF93DF93209122013091230199
:100470003327F901E258FF4F8491F901E654FF4F09
:10048000D491F901EA55FF4FC491C11104C081E331
:10049000DF91CF91089581110E949F01EC2FF0E030
:1004A000EE0FFF1FEC58FF4FA591B491EC91ED2397
:1004B00071F380E3EDCF1F920F920FB60F921124CC
:1004C0002F933F938F939F93AF93BF9380912B0173
:1004D00090912C01A0912D01B0912E0130912A0113
:1004E00023E0230F2D3758F50196A11DB11D209350
:1004F0002A0180932B0190932C01A0932D01B0939E
:100500002E018091260190912701A0912801B091A0
:1005100029010196A11DB11D809326019093270109
:10052000A0932801B0932901BF91AF919F918F9122
:100530003F912F910F900FBE0F901F90189526E8B6
:10054000230F0296A11DB11DD2CF1F920F920FB69D
:100550000F9211242F933F934F935F936F937F9349
:100560008F939F93AF93BF93EF93FF938FE291E0AD
:100570000E941001FF91EF91BF91AF919F918F91D8
:100580007F916F915F914F913F912F910F900FBE8F
:100590000F901F9018951F920F920FB60F92112473
:1005A0002F938F939F93EF93FF93E0913F01F091EF
:1005B00040018081E0914501F091460182FD1BC020
:1005C0009081809148018F5F8F732091490182173C
:1005D00041F0E0914801F0E0E15DFE4F958F80939E
:1005E0004801FF91EF919F918F912F910F900FBE36
:1005F0000F901F9018958081F4CF1F920F920FB625
:100600000F9211242F933F934F935F936F937F9398
:100610008F939F93AF93BF93EF93FF93E091030169
:10062000F09104010995FF91EF91BF91AF919F91D6
:100630008F917F916F915F914F913F912F910F908B
:100640000FBE0F901F9018951F920F920FB60F922A
:1006500011242F933F934F935F936F937F938F93C7
:100660009F93AF93BF93EF93FF93E0910101F091BC
:1006700002010995FF91EF91BF91AF919F918F91E9
:100680007F916F915F914F913F912F910F900FBE8E
:100690000F901F9018951F920F920FB60F92112472
:1006A0000F931F932F933F934F935F936F937F937A
:1006B0008F939F93AF93BF93CF93DF93EF93FF936A
:1006C000E89886EF91E0909302018093010180E029
:1006D00091E09F938F938DE191E09F938F930E9480
:1006E00082060F900F900F900F9080910001813340
:1006F00019F58091200190912101892B09F043C0C7
:1007000081E390E00E947B0681E090E090932101DC
:100710008093200100E011E0CDE1D1E01F930F9321
:10072000DF93CF930E9482060F900F900F900F904F
:1007300080910001803391F787EF91E0909302015F
:1007400080930101809169008C7F816080936900B2
:10075000E89A80916F008D7F80936F00FF91EF91F9
:10076000DF91CF91BF91AF919F918F917F916F91C9
:100770005F914F913F912F911F910F910F900FBE5D
:100780000F901F90189580E390E00E947B061092D6
:10079000210110922001BECFEFE2F1E0138212821C
:1007A00088EE93E0A0E0B0E084839583A683B783CE
:1007B0008FE091E09183808385EC90E0958784873A
:1007C00084EC90E09787868780EC90E0918B808B1B
:1007D00081EC90E0938B828B82EC90E0958B848B04
:1007E00086EC90E0978B868B118E128E138E148E72
:1007F0001092CD011092CC010895789484B5826056
:1008000084BD84B5816084BD85B5826085BD85B5B4
:10081000816085BD80916E00816080936E00109232
:1008200081008091810082608093810080918100AD
:10083000816080938100809180008160809380003E
:100840008091B10084608093B1008091B00081609C
:100850008093B00080917A00846080937A008091C8
:100860007A00826080937A0080917A008160809320
:100870007A0080917A00806880937A001092C1009B
:10088000E0913F01F091400182E08083E0913B01E3
:10089000F0913C011082E0913D01F0913E018FEC1E
:1008A000808310924701E0914301F091440186E07A
:1008B0008083E0914101F0914201808180618083D9
:1008C000E0914101F0914201808188608083E09154
:1008D0004101F0914201808180688083E091410173
:1008E000F091420180818F7D8083ECEBF0E02491D8
:1008F000E8EAF0E084918823C1F090E0880F991F26
:10090000FC01E456FF4FC591D491FC01EE56FF4F18
:10091000A591B4919FB7F8943881822F8095832355
:100920008883EC91E22BEC939FBF82E090E0909360
:10093000230180932201E7ECF0E02491E3EBF0E067
:100940008491882399F090E0880F991FFC01E45668
:10095000FF4FA591B491FC01EE56FF4F8591949104
:100960008FB7F894EC91E22BEC938FBF8DE090E081
:10097000909325018093240162E372E087E292E084
:100980000E94E2049093D1018093D0019093CF0113
:100990008093CE0187EF91E0909302018093010153
:1009A000809169008C7F816080936900E89AC0E043
:1009B000D0E02097F1F30E94FC008823D1F30E943D
:1009C0000000F7CF0F931F93CF93DF93009759F455
:1009D0006115710541F4F0E0E0E0CF01DF91CF91C6
:1009E0001F910F9108958B01EC016EE070E081E0A2
:1009F00090E00E942D05FC01892B69F380E8838338
:100A00000115110571F01387028781E883838091B6
:100A1000CE019091CF01892B21F4F093CF01E09387
:100A2000CE012097D1F2D187C087838182608383F2
:100A30008091D0019091D101892B79F6F093D10169
:100A4000E093D0018091D2019091D301892B29F6B6
:100A5000F093D301E093D201C0CF0F931F93CF93B4
:100A6000DF93869F8001879F100D969F100D1124A4
:100A7000C8010E944905EC01009729F0A80170E027
:100A800060E00E946E06CE01DF91CF911F910F9121
:100A900008950F931F93CF93DF938230910510F445
:100AA00082E090E0E091D601F091D70130E020E0C3
:100AB000B0E0A0E0309799F42115310509F44AC05F
:100AC000281B390B24303105D8F58A819B816115AB
:100AD000710589F1FB0193838283FE0111C040817E
:100AE00051810281138148175907E0F048175907CF
:100AF00099F4109761F012960C93129713961C9329
:100B00003296CF01DF91CF911F910F9108950093FD
:100B1000D6011093D701F4CF2115310551F04217BA
:100B2000530738F0A901DB019A01BD01DF01F8018B
:100B3000C1CFEF01F9CF9093D7018093D601CDCFEC
:100B4000FE01E20FF31F8193919322503109398303
:100B50002883D7CF2091D4013091D501232B41F4A4
:100B600020910701309108013093D5012093D401E1
:100B700020910501309106012115310541F42DB771
:100B80003EB74091090150910A01241B350BE091B9
:100B9000D401F091D501E217F307A0F42E1B3F0B0F
:100BA0002817390778F0AC014E5F5F4F24173507DF
:100BB00048F04E0F5F1F5093D5014093D4018193AD
:100BC00091939FCFF0E0E0E09CCFCF93DF9300972D
:100BD000E9F0FC01329713821282A091D601B09104
:100BE000D701ED0130E020E01097A1F420813181A0
:100BF000820F931F2091D4013091D5012817390716
:100C000009F061C0F093D501E093D401DF91CF9159
:100C10000895EA01CE17DF07E8F54A815B819E015E
:100C200041155105B1F7E901FB83EA8349915991D7
:100C3000C40FD51FEC17FD0761F4808191810296E6
:100C4000840F951FE90199838883828193819B8317
:100C50008A83F0E0E0E012968D919C9113970097C3
:100C6000B9F52D913C911197CD010296820F931FFA
:100C70002091D4013091D5012817390739F63097E2
:100C800051F51092D7011092D601B093D501A093DF
:100C9000D401BCCFD383C28340815181840F951F7F
:100CA000C817D90761F44E5F5F4F88819981480F5B
:100CB000591F518340838A819B81938382832115AD
:100CC000310509F0B0CFF093D701E093D6019ECF64
:100CD000FD01DC01C0CF13821282D7CFDC0101C03D
:100CE0006D9341505040E0F70895EE0FFF1F0590BF
:100CF000F491E02D09946091D0017091D1010E948E
:100D000078090895B0E0A0E0E8E8F6E00C94D30993
:100D1000AE014B5F5F4FFA0161917191AF0180911C
:100D2000CE019091CF010E942308E2E00C94EF09DC
:100D300020FD09C0FC0123FD05C022FF02C0738312
:100D4000628351834083089544FD17C046FD1DC052
:100D5000DB01FC01AA0FBB1FEE1FFF1F1094D1F790
:100D60006A0F7B1F8E1F9F1F660F771F881F991F9B
:100D7000620F711D811D911D089533E0660F771F6D
:100D8000881F991F3150D1F7F3CF34E0F7CF0F937D
:100D90001F93CF93DF938C01C8010E943C09EC01A3
:100DA00097FD08C00E942809892BB1F7B801CE0130
:100DB0000E94A809CE01DF91CF911F910F91089554
:100DC0008F929F92AF92BF92EF92FF920F931F93D9
:100DD000CF93DF938C01D62F7A01B22E0E943C096B
:100DE0009C0133272B32310529F02D323105A9F42E
:100DF0006894B7F8D15061F480E0DF91CF911F91F2
:100E00000F91FF90EF90BF90AF909F908F900895BB
:100E1000C8010E943C0997FDEFCFCB2DCD7F2B2D34
:100E20002073F9F48033E9F4AA24AA94AD0E89F072
:100E3000C8010E943C0997FD0CC0282F2F7D283542
:100E400061F4C264D25029F0C8010E943C0997FFA6
:100E500008C0812C912C54011BC0B6FE2BC0C2606F
:100E6000DA2D812C912C540120ED280F283028F107
:100E7000C4FD09C02A3008F1C6FF05C02F7D3FEE32
:100E8000320F3630C8F0B8010E94A809C1FFB4CFB4
:100E9000C7FF08C0B094A09490948094811C911CCA
:100EA000A11CB11C2C2FB501A401C7010E949806FA
:100EB00081E0A3CFC261D4CF27504C2FC501B4012C
:100EC0000E94A4064B015C01C260D15009F3C80125
:100ED0000E943C0997FFC8CFD9CFA0E2B0E0E3E77A
:100EE000F7E00C94C8095C01962E7A01CE010196B8
:100EF0006C0180E2F60111928A95E9F7F501B38160
:100F0000890130E020E0712C812CA0E041E050E02C
:100F1000F801B3FD8591B3FF8191982F8F01811165
:100F200007C010E000E0C801A096EDE00C94E409D1
:100F30008E3519F42115310541F1A21713064CF431
:100F40008D3549F18D3229F4811006C088248394AF
:100F50001DC0882009F464C0E92FE695E695E69562
:100F6000EC0DFD2DF11D892F8770BA0101C0660FB0
:100F70008A95EAF78081682B6083791651F097157E
:100F800010F49F5FE9CF9150E7CFA1E02F5F3F4F73
:100F9000BFCF812CFBCF882019F08E8180628E8399
:100FA000AA2359F0F6019E012F5D3F4F8081809565
:100FB00080833196E217F307C9F788248394C5012B
:100FC0000E943C0997FD16C0E82FE695E695E69548
:100FD000EC0DFD2DF11D208130E0AC01477055274F
:100FE00002C0359527954A95E2F720FD06C0B50168
:100FF0000E94A809882069F094CFE114F10429F037
:10100000F7018083C70101967C019A94812C91108D
:10101000D6CFE114F10409F486CFF701108283CF13
:10102000E82FE695E695E695EC0DFD2DF11D982F40
:101030009770BA0101C0660F9A95EAF79081692B03
:101040006083782EA3CFB0E0A0E0E9E2F8E00C9452
:10105000C6096C01EB015A01FC0117821682512C62
:10106000F601E380FE01E3FC8591E3FE8191182FF8
:10107000EF018823E9F090E00E942809892B21F0F4
:10108000C6010E94C706ECCF153241F4FE01E3FC15
:101090001591E3FE1191EF01153269F4C6010E942A
:1010A0003C0997FD8EC01817D9F2B6010E94A80915
:1010B000852D90E08AC000E01A3231F4E3FC1591EE
:1010C000E3FE1191EF0101E0F12C20ED210F2A3018
:1010D00048F101FF37C0FF2059F31836B1F11C3633
:1010E00009F43DC0112321F3612F70E088E690E000
:1010F0000E943109892BE1F2912C812C00FD06C060
:10110000F50180809180C50102965C011E3679F55B
:10111000F6014681578170E060E0202FC4010E94F3
:1011200098069ECF02606F2D70E090E080E040E274
:101130000E94A406F62EFE01E3FC1591E3FE119138
:10114000EF01C3CFFF24FA94C8CFFE01E3FC159151
:10115000E3FE1191EF01183609F0C4CF0860046076
:10116000FE01E3FC1591E3FE1191EF01BBCF1336B5
:10117000C1F401FD02C0FF24F394C6010E943C09A2
:1011800097FD1FC08114910429F0F4018083C401EC
:1011900001964C01FA94F110F0CF00FD61CF539409
:1011A0005FCF1B35B9F49E01A4016F2DC6010E94CB
:1011B0006D07EC01892B89F7F6018381807309F4AF
:1011C00077CF8FEF9FEF511073CFCDB7DEB7EFE042
:1011D0000C94E209C6010E94C70697FDF2CF1F36A4
:1011E000A9F130F4143641F0193639F0006405C025
:1011F0001337B9F01537D1F70062202FA4016F2DF6
:10120000C6010E94E0068111C8CFD6CF8114910497
:1012100029F0F4016082C40101964C01FA94FF2088
:1012200071F0C6010E943C093C0197FD08C00E9474
:101230002809892B59F3B601C3010E94A80981141A
:10124000910409F4AACFF4011082A7CF0061D5CF91
:1012500091110C94C009803219F089508550C8F75B
:101260000895FC010590061621F00020D9F7C00171
:1012700008953197CF010895CF93DF93EC012B812F
:1012800020FF1AC026FF0CC02F7B2B838E819F81ED
:1012900001969F838E838A8190E0DF91CF9108959C
:1012A00022FF18C0E881F9818081082E000C990B7B
:1012B000009729F420622B838FEF9FEFEECF3196BA
:1012C000F983E8832E813F812F5F3F4F3F832E8339
:1012D0009927E3CFEA85FB85099597FFF3CF2B810B
:1012E000019621F080E2822B8B83E6CF80E1FBCF59
:1012F0000F931F93CF93DF93182F092FEB018B814F
:1013000081FD09C01FEF0FEF812F902FDF91CF914B
:101310001F910F91089582FF14C02E813F818C810F
:101320009D81281739073CF4E881F981CF010196A6
:101330009983888310838E819F8101969F838E83FA
:10134000E3CFE885F985812F0995892BA1F3DACFC1
:10135000FB01238120FF11C026FD0FC08F3F98079E
:1013600071F082832F7D2064238326813781215071
:10137000310937832683992708958FEF9FEF0895CA
:101380009927882708952F923F924F925F926F92EC
:101390007F928F929F92AF92BF92CF92DF92EF9205
:1013A000FF920F931F93CF93DF93CDB7DEB7CA1B86
:1013B000DB0B0FB6F894DEBF0FBECDBF09942A88B1
:1013C000398848885F846E847D848C849B84AA8459
:1013D000B984C884DF80EE80FD800C811B81AA81E6
:1013E000B981CE0FD11D0FB6F894DEBF0FBECDBFB1
:0813F000ED010895F894FFCF10
:1013F8002DF601F6010000D801800000000000323F
:10140800019200BF007F01F000CE00E200256300DA
:00000001FF
