:100000000C9461000C9473000C9473000C947300B6
:100010000C9473000C9473000C9473000C94730094
:100020000C9473000C9473000C9473000C94730084
:100030000C9473000C9473000C9473000C94730074
:100040000C94C9000C9473000C9473000C9473000E
:100050000C9473000C9473000C9473000C94730054
:100060000C9473000C94730000000000240027001F
:100070002A000000000023002600290000000000E4
:10008000250028002B0004040404040404040202D4
:100090000202020203030303030301020408102007
:1000A0004080010204081020010204081020000012
:1000B0000008000201000003040700000000000027
:1000C000000011241FBECFEFD8E0DEBFCDBF21E07E
:1000D000A0E0B1E001C01D92A131B207E1F70E949A
:1000E00013010C9444020C940000833081F028F436
:1000F000813099F08230A9F008958730A9F08830D6
:10010000C9F08430B1F4809180008F7D03C080916C
:1001100080008F7780938000089584B58F7784BDA9
:10012000089584B58F7DFBCF8091B0008F77809349
:10013000B00008958091B0008F7DF9CF1F93CF93C9
:10014000DF93EBEBF0E09491E7EAF0E0D491E3E9A0
:10015000F0E0C491CC23B9F0182F992319F0892F1E
:100160000E947500EC2FF0E0EE0FFF1FE458FF4FE8
:10017000A591B4918FB7F894EC91111108C0D09566
:10018000DE23DC938FBFDF91CF911F910895DE2B8B
:10019000F8CF1F920F920FB60F9211242F933F9317
:1001A0008F939F93AF93BF93809107019091080124
:1001B000A0910901B0910A013091040123E0230FBD
:1001C0002D3758F50196A11DB11D20930401809390
:1001D000070190930801A0930901B0930A0180914F
:1001E000000190910101A0910201B09103010196DB
:1001F000A11DB11D8093000190930101A093020104
:10020000B0930301BF91AF919F918F913F912F9137
:100210000F900FBE0F901F90189526E8230F02969F
:10022000A11DB11DD2CF789484B5826084BD84B500
:10023000816084BD85B5826085BD85B5816085BDE1
:1002400080916E00816080936E0010928100809199
:100250008100826080938100809181008160809321
:100260008100809180008160809380008091B10046
:1002700084608093B1008091B00081608093B00071
:1002800080917A00846080937A0080917A00826005
:1002900080937A0080917A00816080937A008091C7
:1002A0007A00806880937A001092C10006EA10E01C
:1002B000F801249172E9E72E70E0F72EF70184919E
:1002C0008823C1F090E0880F991FFC01E859FF4F87
:1002D000A591B491FC01E458FF4FC591D4919FB70B
:1002E000F8943C91822F809583238C938881282BCE
:1002F00028839FBFE7EAF0E02491E3E9F0E08491EE
:10030000882399F090E0880F991FFC01E859FF4F6E
:10031000A591B491FC01E458FF4F859194918FB75A
:10032000F894EC91E22BEC938FBF9AEB692E90E05E
:10033000792E20E0C22E20E0D22E32E0A32EB12C66
:1003400088248394912CF3018491F801C491F701DE
:10035000D491DD2301F181110E947500ED2FF0E0B1
:10036000EE0FFF1FEE58FF4FA591B4912C91809195
:100370000F0190911001C22371F08230910509F0B4
:1003800062C01092100110920F01C114D104D9F271
:100390000E940000D8CFC0910F01D091100120978A
:1003A000C1F42FB7F8948091070190910801A091B2
:1003B0000901B0910A012FBF80930B0190930C01AA
:1003C000A0930D01B0930E019092100180920F0145
:1003D000DCCFC130D105C9F62FB7F8948091070161
:1003E00090910801A0910901B0910A012FBF40919D
:1003F0000B0150910C0160910D0170910E01841B55
:10040000950BA60BB70B84369105A105B10508F431
:10041000BCCFB0921001A0920F0180910501909184
:100420000601892B41F481E00E949E00D0930601D1
:10043000C0930501AACF80E00E949E0010920601A1
:1004400010920501A2CF019709F09FCF2FB7F89422
:100450008091070190910801A0910901B0910A01D2
:100460002FBF40910B0150910C0160910D017091D3
:100470000E01841B950BA60BB70B84369105A105C5
:0C048000B10508F07ECF81CFF894FFCFCB
:00000001FF
