:100000000C9461000C947E000C947E000C947E0095
:100010000C947E000C947E000C947E000C947E0068
:100020000C947E000C947E000C947E000C947E0058
:100030000C947E000C947E000C947E000C947E0048
:100040000C94F2000C947E000C947E000C947E00C4
:100050000C947E000C947E000C947E000C947E0028
:100060000C947E000C947E00000000002400270009
:100070002A0000000000250028002B0000000000DE
:1000800023002600290004040404040404040202DA
:100090000202020203030303030301020408102007
:1000A0004080010204081020010204081020000012
:1000B0000008000201000003040700000000000027
:1000C000000011241FBECFEFD8E0DEBFCDBF11E08E
:1000D000A0E0B1E0E6E5F4E002C005900D92A230A8
:1000E000B107D9F721E0A2E0B1E001C01D92AB3029
:1000F000B207E1F70E943C010C9429020C94000025
:10010000833081F028F4813099F08230A9F008958D
:100110008730A9F08830C9F08430B1F48091800034
:100120008F7D03C0809180008F7780938000089539
:1001300084B58F7784BD089584B58F7DFBCF809182
:10014000B0008F778093B00008958091B0008F7DCC
:10015000F9CFCF93DF93EAEBF0E08491E6EAF0E0A9
:10016000D491E2E9F0E0C491CC23A1F081110E9486
:100170008000EC2FF0E0EE0FFF1FE458FF4FA59139
:10018000B491EC91ED2381E090E009F480E0DF91FF
:10019000CF91089580E090E0FACF3FB7F894809136
:1001A000070190910801A0910901B0910A0126B5BB
:1001B000A89B05C02F3F19F00196A11DB11D3FBF9F
:1001C000BA2FA92F982F8827BC01CD01620F711D6E
:1001D000811D911D42E0660F771F881F991F4A9568
:1001E000D1F708951F920F920FB60F9211242F93FB
:1001F0003F938F939F93AF93BF938091030190910F
:100200000401A0910501B09106013091020123E0A3
:10021000230F2D3758F50196A11DB11D2093020122
:100220008093030190930401A0930501B09306010C
:100230008091070190910801A0910901B0910A01F4
:100240000196A11DB11D8093070190930801A09311
:100250000901B0930A01BF91AF919F918F913F9196
:100260002F910F900FBE0F901F90189526E8230F27
:100270000296A11DB11DD2CF789484B5826084BD51
:1002800084B5816084BD85B5826085BD85B581609A
:1002900085BD80916E00816080936E001092810018
:1002A00080918100826080938100809181008160D3
:1002B0008093810080918000816080938000809194
:1002C000B10084608093B1008091B0008160809320
:1002D000B00080917A00846080937A0080917A00E7
:1002E000826080937A0080917A00816080937A00A6
:1002F00080917A00806880937A001092C100E6EACB
:10030000F0E02491E2E9F0E084918823C1F090E0EC
:10031000880F991FFC01E859FF4FC591D491FC014A
:10032000EE58FF4FA591B4919FB7F8943881822F72
:10033000809583238883EC91E22BEC939FBFC7EADF
:10034000D0E0FE01249103E910E0F80184918823B4
:1003500099F090E0880F991FFC01E859FF4FA59193
:10036000B491FC01EE58FF4F859194918FB7F894AA
:100370009C91292B2C938FBF2BEB822E20E0922E69
:1003800030E0A32E30E0B32E0E94A900019709F0BF
:1003900057C00E94CD006B017C0198EC492E512C76
:1003A000612C712C0E94CD006C197D098E099F096A
:1003B000683E734081059105A8F3F1E04F1A51089A
:1003C0006108710828EEC20E23E0D21EE11CF11C68
:1003D000411451046104710429F70E94A900019796
:1003E00079F5E0900001F090010181E090E0E114E6
:1003F000F10411F090E080E09093010180930001FE
:10040000F4018491FE01D490F801C490CC20A1F0B5
:1004100081110E948000EC2DF0E0EE0FFF1FEE58DE
:10042000FF4FA591B4918FB7F8949C91EF2879F084
:10043000D094D922DC928FBF0E94A9000197E1F3EA
:10044000A114B10409F4A0CF0E9400009DCFD92AC5
:06045000F1CFF894FFCF8C
:020456000100A3
:00000001FF
