:100000000C9468000C9490000C9490000C94900058
:100010000C9490000C9490000C9490000C94900020
:100020000C9490000C9490000C9490000C94900010
:100030000C9490000C9490000C9490000C94900000
:100040000C945E060C9490000C9490000C9490001C
:100050000C9490000C9490000C9490000C949000E0
:100060000C9490000C9490006364696E6F707375CB
:1000700078585B00000000002300260029000000E3
:100080000000240027002A000000000025002800AE
:100090002B00040404040404040402020202020209
:1000A000030303030303010204081020408001023C
:1000B00004081020010204081020000000080002BB
:1000C0000100000304070000000000000000140805
:1000D00011241FBECFEFD8E0DEBFCDBF11E0A0E0FE
:1000E000B1E0E0E8FAE102C005900D92AC33B1074F
:1000F000D9F721E0ACE3B1E001C01D92AD35B20704
:10010000E1F710E0C8E6D0E004C02197FE010E94AC
:10011000B009C736D107C9F70E94A8060C943E0D56
:100120000C940000AF92BF92CF92DF92EF92FF92B9
:100130000F931F93CF93DF936C017B018B01040F0F
:10014000151FEB015E01AE18BF08C017D10759F0AB
:100150006991D601ED91FC910190F081E02DC601ED
:100160000995892B79F7C501DF91CF911F910F91E7
:10017000FF90EF90DF90CF90BF90AF9008958330C5
:1001800081F028F4813099F08230A9F00895873009
:10019000A9F08830C9F08430B1F4809180008F7D5F
:1001A00003C0809180008F7780938000089584B58C
:1001B0008F7784BD089584B58F7DFBCF8091B0008B
:1001C0008F778093B00008958091B0008F7DF9CF34
:1001D0001F93CF93DF93282F30E0F901E654FF4FB0
:1001E0008491F901EA55FF4FD491F901EE56FF4F82
:1001F000C491CC23A9F0162F81110E94BF00EC2FCF
:10020000F0E0EE0FFF1FE857FF4FA591B4918FB7B5
:10021000F894EC91111108C0D095DE23DC938FBFC8
:10022000DF91CF911F910895DE2BF8CFCF93DF930D
:1002300090E0FC01EA55FF4F24918E569F4FFC0140
:1002400084918823C9F090E0880F991FFC01E2583F
:10025000FF4FA591B491FC01E857FF4FC591D49190
:1002600061110DC09FB7F8948C91209582238C93D7
:100270008881282328839FBFDF91CF910895623022
:1002800051F49FB7F8943C91822F809583238C93EF
:10029000E8812E2BEFCF8FB7F894EC912E2B2C9377
:1002A0008FBFEACF3FB7F89480914101909142010E
:1002B000A0914301B091440126B5A89B05C02F3FF2
:1002C00019F00196A11DB11D3FBFBA2FA92F982F7C
:1002D0008827BC01CD01620F711D811D911D42E077
:1002E000660F771F881F991F4A95D1F708952FB77A
:1002F000F89460913D0170913E0180913F01909191
:1003000040012FBF0895089590E080E00895CF93B5
:10031000DF93DC0126E0629FA00DB11D11249096B1
:100320005C934E935F9721E091962C939197FC01FB
:10033000E359FF4F0190F081E02DEC01C459DF4FEC
:100340002881222341F0309719F0DC01662329F03F
:10035000DF91CF9108953097D9F35C968C91DF911E
:10036000CF910994CF92DF92EF92FF920F931F9358
:10037000CF93DF93EC01162F042FFC0186E0689FDA
:10038000E00DF11D112411A2878D90A181309105FE
:1003900009F180F08230910509F443C0039709F414
:1003A00045C0DF91CF911F910F91FF90EF90DF90AB
:1003B000CF9008954423A9F341E050E0CE010E947C
:1003C00087010E947701C85ADF4F688379838A8347
:1003D0009B83E7CF0E947701FE01E85AFF4FC08060
:1003E000D180E280F380AB01BC014C195D096E093C
:1003F0007F09729680819181B0E0A0E08417950713
:10040000A607B70770F442E050E0612FCE01DF91FC
:10041000CF911F910F91FF90EF90DF90CF900C94B0
:10042000870143E050E00111BCCFEFCF50E040E046
:10043000ECCFCF93DF9370E0FB01E654FF4F849144
:10044000FB01EA55FF4FD4916E567F4FFB01C491DB
:10045000CC23A1F081110E94BF00EC2FF0E0EE0F41
:10046000FF1FEC58FF4FA591B491EC91ED2381E073
:1004700090E009F480E0DF91CF91089580E090E072
:10048000FACF862F642F0C94E800862F642F0C94EB
:1004900016018F929F92AF92BF92CF92DF92EF920E
:1004A000FF92CF93C82F61E00E94E8000E945201A2
:1004B0004B015C018EEEC82E82E0D82EE12CF12C8F
:1004C0000E945201681979098A099B09683E7340A4
:1004D00081059105A8F321E0C21AD108E108F108CD
:1004E00088EE880E83E0981EA11CB11CC114D104B3
:1004F000E104F10429F760E08C2FCF91FF90EF9099
:10050000DF90CF90BF90AF909F908F900C94E800B9
:100510002F923F924F925F926F927F928F929F9213
:10052000AF92BF92CF92DF92EF92FF920F931F9301
:10053000CF93DF93CDB7DEB728970FB6F894DEBF21
:100540000FBECDBF209145013091460138872F83E2
:1005500039013CE6630E711CE1E0D301EC930E948B
:1005600077012F813885245A3F4F3A832983D90157
:100570000D911D912D913C91AB01BC01401B510B84
:10058000620B730BEF81F885E859FF4F80819181F1
:10059000B0E0A0E084179507A607B70708F07CC174
:1005A000F12C2F803884B6E62B0E311C0F81188574
:1005B0000E591F4FF1018081F816A0F4F801A081B7
:1005C000B181AF0DB11DEF81F88580819181FC0172
:1005D0002081318142E06C918F819885F9010995E4
:1005E000F394E8CF512C2F81388529593F4F3C8314
:1005F0002B83CF80D88434E6C30ED11C4F8158851D
:100600004E595F4F5E834D83AB81BC818C915816F0
:1006100008F086C0E52CF12CF601A081B181AE0D69
:10062000BF1DEF81F88580819181FC01208131819E
:1006300041E06C918F819885F9010995F601A081BF
:10064000B181AE0DBF1DEF81F88580819181FC01E4
:100650002281338140E06C918F819885F901099561
:1006600081E090E0A0E0B0E0052C04C0880F991F65
:10067000AA1FBB1F0A94D2F74C015C01A094B0944E
:10068000412CAF81B885ED91FC91D1018C91481638
:1006900028F5042D10E0AD81BE818D919C91DC0187
:1006A000A00FB11F0480F581E02D6C918F8198859A
:1006B0000995000F111FEF81F885E00FF11F892BBD
:1006C00041F4808591858829992991878087439471
:1006D000D8CF808591858A219B21F7CFD6018D9136
:1006E0009C91DC01AE0DBF1D0280F381E02D41E045
:1006F0006C918F8198850995F60180819181E80E32
:10070000F91EAF81B885ED91FC910190F081E02D4B
:1007100040E0D7016C918F8198850995539474CFEF
:10072000EF80F884C701CC968701F801278D30A1AE
:10073000232B31F4148E2FEF3FEF368F258F11A22C
:100740000A5F1F4F0817190781F7B12CCF80D88493
:1007500030E6C30ED11CD1018C91B81608F05BC0F5
:10076000A12C8B2C912CB4E08B0E911C880C991C25
:10077000EF81F8858E0E9F1EAB81BC818C91A816EF
:1007800008F047C0F401408151810A2C02C05695FF
:1007900047950A94E2F7B89EC00111248A0D911D75
:1007A000EF81F88560E0258D368D8217930709F477
:1007B00076C06F5F36966A30B1F740FF28C0EF8190
:1007C000F88570E060E0248D21111BC0D601ED9109
:1007D000FC91E80FF91F2081B6E0B69FF001B79FAA
:1007E000F00D11244F815885E40FF51F248F968F4B
:1007F000858F10A2178E41E08F8198850E94B201EB
:1008000006C06F5F7F4F36966A307105E1F6A3949C
:10081000B3CFB394A0CFD12CD70191968C918111F5
:10082000D82EB6E0EB0EF11C0E151F05A9F70E949D
:100830007701E981FA816083718382839383DD206C
:1008400059F1AF81B88591968C919197882321F1C8
:100850005F968D919C9190970197F1F45C968C91A5
:10086000882309F46FCE28960FB6F894DEBF0FBE2A
:10087000CDBFDF91CF911F910F91FF90EF90DF904F
:10088000CF90BF90AF909F908F907F906F905F9030
:100890004F903F902F900895F301108253CE4170F6
:1008A000ABCFA0914901B0914A01ED91FC91119714
:1008B0000190F081E02D682FCD010994CF93DF9353
:1008C000EC0160E08E810E94E80061E08E810E9470
:1008D000E80060E08E810E94E8008BE891E00197DB
:1008E000F1F7DF91CF910895CF92DF92EF92FF92CF
:1008F0000F931F93CF93DF936C017C0187E0E80E89
:10090000F11CD0E0C0E0062F10E0B8010C2E02C0B0
:10091000759567950A94E2F76170F70181917F01FF
:100920000E94E8002196C430D10579F7C601DF9115
:10093000CF911F910F91FF90EF90DF90CF900C948B
:100940005E04CF92DF92EF92FF920F931F93CF93AB
:10095000DF93EC01F62E642F8C810E94E8008D81DC
:100960008F3F19F060E00E94E8000F2D10E08F85A6
:1009700084FF25C06E0187E0C80ED11CF12CE12C4C
:10098000B8010E2C02C0759567950A94E2F7617064
:10099000F60181916F010E94E800FFEFEF1AFF0A54
:1009A00088E0E816F10461F7CE01DF91CF911F9145
:1009B0000F91FF90EF90DF90CF900C945E04B80100
:1009C00084E0759567958A95E1F7CE010E947404DD
:1009D0006F2DCE01DF91CF911F910F91FF90EF907E
:1009E000DF90CF900C94740441E00E94A10481E058
:1009F00090E0089540E00C94A1040F931F93CF93CF
:100A0000DF93EC01623019F48F8588608F876B8BE0
:100A10001C8A80E48D8B80E18E8B80E58F8B61E07A
:100A20008C810E9416018D818F3F19F061E00E9438
:100A3000160161E08E810E9416018E0198012C1B27
:100A40003D0B8F8584FD0DC084E090E00F5F1F4F4C
:100A5000281739074CF461E0F80186810E941601DD
:100A6000EDCF88E090E0F2CF8BE39DE00197F1F7C6
:100A700060E08C810E94E80060E08E810E94E800C6
:100A80008D818F3F19F060E00E94E8006F8564FD62
:100A900039C063E0CE010E9474040BE416E4C8017F
:100AA0000197F1F763E0CE010E947404C801019739
:100AB000F1F763E0CE010E94740483E592E00197B0
:100AC000F1F762E0CE010E9474046F856062CE018E
:100AD0000E94FA0484E0888B6CE0CE010E94FA0444
:100AE00061E0CE010E94FA048BE39FE10197F1F7E8
:100AF00082E0898B66E0CE01DF91CF911F910F914B
:100B00000C94FA046062CE010E94FA048BE496E42D
:100B10000197F1F76F856062CE010E94FA0483E5C8
:100B200092E00197F1F76F856062CE010E94FA04AE
:100B3000CCCF443008F043E0FC012389421710F089
:100B40004FEF420FFC01E40FF11D2489620F606832
:100B50000C94FA04CF93DF9340E060E08091490168
:100B600090914A010E949905C0E1D0E080E290E0B6
:100B70000E94BF092197D1F741E060E080914901CF
:100B800090914A010E949905C0E1D0E080E290E096
:100B90000E94BF092197D1F740E060E080914901B0
:100BA00090914A010E94990510924E0110924D01B8
:100BB00010924C0110924B01E0914701F0914801D5
:100BC000CF01809611928E179F07E1F7DF91CF91A9
:100BD00008950F931F938A3209F06DC0E09145018B
:100BE000F0914601878D90A1892B09F064C00E9485
:100BF000770100914F0110915001209151013091E6
:100C00005201601B710B820B930B6C3D754081058B
:100C1000910508F04CC080914D0190914E012091BA
:100C20004B0130914C01009721F42115310509F455
:100C300042C0E0914701F0914801A90164E0440FEE
:100C4000551F6A95E1F7E40FF51FE80FF91F31977B
:100C50001082019797FD1EC090934E0180934D0125
:100C600040914B0160914D018091490190914A0161
:100C70000E94990580E290E00E94BF0940914B01DB
:100C800060914D018091490190914A011F910F910E
:100C90000C9499058FE090E090934E0180934D0164
:100CA0002150310930934C0120934B01D9CF1F9132
:100CB0000F910C94AA051F910F9108951F920F9206
:100CC0000FB60F9211242F933F938F939F93AF935F
:100CD000BF9380913D0190913E01A0913F01B09161
:100CE000400130913C0123E0230F2D3758F5019648
:100CF000A11DB11D20933C0180933D0190933E01C5
:100D0000A0933F01B0934001809141019091420135
:100D1000A0914301B09144010196A11DB11D8093A2
:100D2000410190934201A0934301B0934401BF91CC
:100D3000AF919F918F913F912F910F900FBE0F9088
:100D40001F90189526E8230F0296A11DB11DD2CF42
:100D5000CF93DF931F92CDB7DEB7789484B58260CE
:100D600084BD84B5816084BD85B5826085BD85B54F
:100D7000816085BD80916E00816080936E001092CD
:100D80008100809181008260809381008091810048
:100D900081608093810080918000816080938000D9
:100DA0008091B10084608093B1008091B000816037
:100DB0008093B00080917A00846080937A00809163
:100DC0007A00826080937A0080917A0081608093BB
:100DD0007A0080917A00806880937A001092C10036
:100DE0008FE690E00E948408FC0112821682158230
:100DF000178282E291E091838083DF015C96CD01CE
:100E0000CC961C9214961C921E92139715961C92C7
:100E100015971696A817B907A1F7DF01AE59BF4F6E
:100E200084E091E011969C938E93129680E091E07D
:100E300011969C938E93129684E08C9311968C93CA
:100E4000179788E091E011969C938E9318968AE00C
:100E500090E011969C938E93129684EF91E01196F8
:100E60009C938E93139611961C921E9251971D92ED
:100E70001D921D921C92139750961C92F09346015E
:100E8000E093450188E190E00E9484088C01FC0118
:100E9000138212828CE291E0918380838DE08483BF
:100EA0008FEF85838CE086838BE087838AE0808761
:100EB00081E081871286138614861586168617862A
:100EC00061E0C8010E94FD0410934A0100934901AA
:100ED00062E0C8010E94FD0468E872E081E594E0E8
:100EE0000E941D08909354018093530190935601E2
:100EF00080935501909358018093570161E08EE0F3
:100F00000E94160161E08FE00E9416010E94AA056E
:100F1000E0914501F0914601E359FF4F89EE95E0DC
:100F200091838083CE0101966C0104E311E060E0BF
:100F3000E62E60E0F62EDF92CF921F930F930E9471
:100F4000C60989810F900F900F900F908A3281F41B
:100F50000E94770160934F0170935001809351017B
:100F600090935201E114F10431F30E940000E3CFA9
:100F7000833291F467E371E08091470190914801D9
:100F80000E94B609892B29F48FE090E00E94490263
:100F9000E9CF8EE090E0FACF80914D0190914E0123
:100FA00040914B0150914C014F5F5F4FBC016F5F0F
:100FB0007F4F649F9001659F300D749F300D112409
:100FC000213231057CF640977CF010924E01109250
:100FD0004D0150934C0140934B0160E080914901D9
:100FE00090914A010E94990580914D0190914E0186
:100FF000498120914B0130914C01220F331FE09128
:101000004701F0914801E20FF31FE80FF91F4083F9
:10101000019690934E0180934D018981082E000C1A
:10102000990B0E94BF099ECF80E290E00E94840845
:10103000909348018093470108950F931F93CF9396
:10104000DF93009759F46115710541F4F0E0E0E099
:10105000CF01DF91CF911F910F9108958B01EC018A
:101060006EE070E081E090E00E946808FC01892B4E
:1010700069F380E883830115110571F013870287F6
:1010800081E883838091530190915401892B21F44D
:10109000F0935401E09353012097D1F2D187C08798
:1010A0008381826083838091550190915601892BC1
:1010B00079F6F0935601E093550180915701909194
:1010C0005801892B29F6F0935801E0935701C0CFBE
:1010D0000F931F93CF93DF93869F8001879F100DFF
:1010E000969F100D1124C8010E948408EC010097FE
:1010F00029F0A80170E060E00E94A909CE01DF910B
:10110000CF911F910F9108950F931F93CF93DF936A
:101110008230910510F482E090E0E0915B01F09163
:101120005C0130E020E0B0E0A0E0309799F42115B8
:10113000310509F44AC0281B390B24303105D8F594
:101140008A819B816115710589F1FB0193838283FB
:10115000FE0111C040815181028113814817590756
:10116000E0F04817590799F4109761F012960C9324
:10117000129713961C933296CF01DF91CF911F9156
:101180000F91089500935B0110935C01F4CF21153A
:10119000310551F04217530738F0A901DB019A01DC
:1011A000BD01DF01F801C1CFEF01F9CF90935C01E0
:1011B00080935B01CDCFFE01E20FF31F81939193EA
:1011C0002250310939832883D7CF2091590130919A
:1011D0005A01232B41F420911A0130911B013093C5
:1011E0005A012093590120911801309119012115BC
:1011F000310541F42DB73EB740911C0150911D01BE
:10120000241B350BE0915901F0915A01E217F307C5
:10121000A0F42E1B3F0B2817390778F0AC014E5F66
:101220005F4F2417350748F04E0F5F1F50935A0148
:1012300040935901819391939FCFF0E0E0E09CCFE0
:10124000CF93DF930097E9F0FC013297138212826B
:10125000A0915B01B0915C01ED0130E020E01097BE
:10126000A1F420813181820F931F20915901309187
:101270005A012817390709F061C0F0935A01E09329
:101280005901DF91CF910895EA01CE17DF07E8F504
:101290004A815B819E0141155105B1F7E901FB834C
:1012A000EA8349915991C40FD51FEC17FD0761F4EA
:1012B000808191810296840F951FE901998388832B
:1012C000828193819B838A83F0E0E0E012968D9186
:1012D0009C9113970097B9F52D913C911197CD01F1
:1012E0000296820F931F2091590130915A012817BD
:1012F000390739F6309751F510925C0110925B0175
:10130000B0935A01A0935901BCCFD383C2834081CB
:101310005181840F951FC817D90761F44E5F5F4F45
:1013200088819981480F591F518340838A819B810D
:10133000938382832115310509F0B0CFF0935C01CE
:10134000E0935B019ECFFD01DC01C0CF13821282CE
:10135000D7CFDC0101C06D9341505040E0F70895B4
:10136000EE0FFF1F0590F491E02D0994FB01DC01C5
:101370008D91019080190110D9F3990B0895609116
:101380005501709156010E94BC0C0895B0E0A0E098
:10139000ECECF9E00C94170DAE014B5F5F4FFA01D6
:1013A00061917191AF0180915301909154010E941C
:1013B000670BE2E00C94330D20FD09C0FC0123FD16
:1013C00005C022FF02C07383628351834083089566
:1013D00044FD17C046FD1DC0DB01FC01AA0FBB1F69
:1013E000EE1FFF1F1094D1F76A0F7B1F8E1F9F1FE8
:1013F000660F771F881F991F620F711D811D911D38
:10140000089533E0660F771F881F991F3150D1F779
:10141000F3CF34E0F7CF0F931F93CF93DF938C017B
:10142000C8010E94800CEC0197FD08C00E946C0C62
:10143000892BB1F7B801CE010E94EC0CCE01DF91EF
:10144000CF911F910F9108958F929F92AF92BF926B
:10145000EF92FF920F931F93CF93DF938C01D62FC0
:101460007A01B22E0E94800C9C0133272B32310569
:1014700029F02D323105A9F46894B7F8D15061F400
:1014800080E0DF91CF911F910F91FF90EF90BF907F
:10149000AF909F908F900895C8010E94800C97FD97
:1014A000EFCFCB2DCD7F2B2D2073F9F48033E9F4D2
:1014B000AA24AA94AD0E89F0C8010E94800C97FD61
:1014C0000CC0282F2F7D283561F4C264D25029F03A
:1014D000C8010E94800C97FF08C0812C912C5401F8
:1014E0001BC0B6FE2BC0C260DA2D812C912C54019A
:1014F00020ED280F283028F1C4FD09C02A3008F15A
:10150000C6FF05C02F7D3FEE320F3630C8F0B80160
:101510000E94EC0CC1FFB4CFC7FF08C0B094A094E8
:1015200090948094811C911CA11CB11C2C2FB5019E
:10153000A401C7010E94DC0981E0A3CFC261D4CF1E
:1015400027504C2FC501B4010E94E8094B015C01F2
:10155000C260D15009F3C8010E94800C97FFC8CF28
:10156000D9CFA0E2B0E0E7EBFAE00C940C0D5C01FF
:10157000962E7A01CE0101966C0180E2F60111925D
:101580008A95E9F7F501B381890130E020E0712CFB
:10159000812CA0E041E050E0F801B3FD8591B3FF5C
:1015A0008191982F8F01811107C010E000E0C801E0
:1015B000A096EDE00C94280D8E3519F42115310517
:1015C00041F1A21713064CF48D3549F18D3229F4FF
:1015D000811006C0882483941DC0882009F464C04B
:1015E000E92FE695E695E695EC0DFD2DF11D892F89
:1015F0008770BA0101C0660F8A95EAF78081682B6F
:101600006083791651F0971510F49F5FE9CF9150E0
:10161000E7CFA1E02F5F3F4FBFCF812CFBCF8820CA
:1016200019F08E8180628E83AA2359F0F6019E0103
:101630002F5D3F4F8081809580833196E217F307BD
:10164000C9F788248394C5010E94800C97FD16C0B9
:10165000E82FE695E695E695EC0DFD2DF11D208130
:1016600030E0AC014770552702C0359527954A9563
:10167000E2F720FD06C0B5010E94EC0C882069F05D
:1016800094CFE114F10429F0F7018083C70101969A
:101690007C019A94812C9110D6CFE114F10409F4C5
:1016A00086CFF701108283CFE82FE695E695E69581
:1016B000EC0DFD2DF11D982F9770BA0101C0660F3A
:1016C0009A95EAF79081692B6083782EA3CFB0E0DA
:1016D000A0E0EDE6FBE00C940A0D6C01EB015A0171
:1016E000FC0117821682512CF601E380FE01E3FC17
:1016F0008591E3FE8191182FEF018823E9F090E0B6
:101700000E946C0C892B21F0C6010E940B0AECCFC1
:10171000153241F4FE01E3FC1591E3FE1191EF0156
:10172000153269F4C6010E94800C97FD8EC018170F
:10173000D9F2B6010E94EC0C852D90E08AC000E041
:101740001A3231F4E3FC1591E3FE1191EF0101E04F
:10175000F12C20ED210F2A3048F101FF37C0FF2086
:1017600059F31836B1F11C3609F43DC0112321F3A9
:10177000612F70E088E690E00E94750C892BE1F201
:10178000912C812C00FD06C0F50180809180C5015F
:1017900002965C011E3679F5F6014681578170E0AC
:1017A00060E0202FC4010E94DC099ECF02606F2DF3
:1017B00070E090E080E040E20E94E809F62EFE0131
:1017C000E3FC1591E3FE1191EF01C3CFFF24FA94DE
:1017D000C8CFFE01E3FC1591E3FE1191EF0118362D
:1017E00009F0C4CF08600460FE01E3FC1591E3FE3C
:1017F0001191EF01BBCF1336C1F401FD02C0FF24EC
:10180000F394C6010E94800C97FD1FC081149104BF
:1018100029F0F4018083C40101964C01FA94F1107F
:10182000F0CF00FD61CF53945FCF1B35B9F49E011B
:10183000A4016F2DC6010E94B10AEC01892B89F722
:10184000F6018381807309F477CF8FEF9FEF5110FA
:1018500073CFCDB7DEB7EFE00C94260DC6010E9422
:101860000B0A97FDF2CF1F36A9F130F4143641F080
:10187000193639F0006405C01337B9F01537D1F7C0
:101880000062202FA4016F2DC6010E94240A81113D
:10189000C8CFD6CF8114910429F0F4016082C4012D
:1018A00001964C01FA94FF2071F0C6010E94800C51
:1018B0003C0197FD08C00E946C0C892B59F3B601BE
:1018C000C3010E94EC0C8114910409F4AACFF40125
:1018D0001082A7CF0061D5CF91110C94040D8032F6
:1018E00019F089508550C8F70895FC010590061637
:1018F00021F00020D9F7C00108953197CF01089554
:10190000CF93DF93EC012B8120FF1AC026FF0CC080
:101910002F7B2B838E819F8101969F838E838A816B
:1019200090E0DF91CF91089522FF18C0E881F981FE
:101930008081082E000C990B009729F420622B83DC
:101940008FEF9FEFEECF3196F983E8832E813F81B1
:101950002F5F3F4F3F832E839927E3CFEA85FB8597
:10196000099597FFF3CF2B81019621F080E2822B1E
:101970008B83E6CF80E1FBCF0F931F93CF93DF9351
:10198000182F092FEB018B8181FD09C01FEF0FEF8D
:10199000812F902FDF91CF911F910F91089582FF9A
:1019A00014C02E813F818C819D81281739073CF41A
:1019B000E881F981CF0101969983888310838E8114
:1019C0009F8101969F838E83E3CFE885F985812FE0
:1019D0000995892BA1F3DACFFB01238120FF11C0E8
:1019E00026FD0FC08F3F980771F082832F7D206402
:1019F0002383268137812150310937832683992714
:101A000008958FEF9FEF08959927882708952F92C3
:101A10003F924F925F926F927F928F929F92AF927E
:101A2000BF92CF92DF92EF92FF920F931F93CF93CB
:101A3000DF93CDB7DEB7CA1BDB0B0FB6F894DEBF62
:101A40000FBECDBF09942A88398848885F846E8488
:101A50007D848C849B84AA84B984C884DF80EE80D2
:101A6000FD800C811B81AA81B981CE0FD11D0FB6DB
:101A7000F894DEBF0FBECDBFED010895F894FFCFFF
:101A80000504030209080706373839413435364260
:101A9000313233432A30234400005D0180000000CE
:101AA000000045024102190200000000F404920007
:0C1AB000840183012563003133333700CB
:00000001FF
